:020000040000fa
:080000000002040000000000f2
:020000040000fa
:10000800f62d0000f62d0000f62d0000f62d00005c
:10001800f62d0000f62d0000f62d0000f62d00004c
:10002800f62d0000f62d0000f62d00002827000010
:10003800f62d0000f62d0000f62d0000f62d00002c
:10004800f62d0000f62d0000f62d0000f62d00001c
:10005800f62d0000f62d0000f62d0000f62d00000c
:10006800f62d0000f62d0000f62d0000f62d0000fc
:10007800f62d0000f62d0000f62d0000f62d0000ec
:10008800f62d0000f62d0000f62d0000142c0000bf
:10009800f62d0000f62d0000b22b0000f62d000012
:1000a800f62d0000f62d0000f62d0000f62d0000bc
:1000b800f62d0000f62d0000f62d0000f62d0000ac
:1000c800f62d0000f62d0000f62d0000f62d00009c
:1000d800f62d0000f62d0000f62d0000f62d00008c
:1000e800f62d0000f62d0000f62d0000f62d00007c
:1000f800f62d0000f62d0000f62d0000f62d00006c
:10010800f62d0000f62d0000f62d0000f62d00005b
:10011800f62d0000f62d0000f62d0000f62d00004b
:10012800f62d0000f62d0000f62d0000f62d00003b
:10013800f62d0000f62d0000f62d0000f62d00002b
:10014800f62d0000f62d0000f62d0000f62d00001b
:10015800f62d0000f62d0000f62d0000f62d00000b
:10016800f62d0000f62d0000f62d0000f62d0000fb
:10017800f62d0000f62d0000f62d0000f62d0000eb
:10018800f62d0000f62d0000f62d0000f62d0000db
:10019800f62d0000f62d0000f62d0000f62d0000cb
:1001a800f62d0000f62d0000f62d0000f62d0000bb
:1001b800f62d0000f62d0000f62d0000f62d0000ab
:1001c800f62d0000f62d0000f62d0000f62d00009b
:1001d800f62d0000f62d0000f62d0000f62d00008b
:1001e800f62d0000f62d0000f62d0000f62d00007b
:0801f800f62d0000f62d0000b9
:020000040000fa
:10020800f62d0000f62d0000f62d0000f62d00005a
:10021800f62d0000f62d0000f62d0000f62d00004a
:10022800f62d0000f62d0000f62d0000282700000e
:10023800f62d0000f62d0000f62d0000f62d00002a
:10024800f62d0000f62d0000f62d0000f62d00001a
:10025800f62d0000f62d0000f62d0000f62d00000a
:10026800f62d0000f62d0000f62d0000f62d0000fa
:10027800f62d0000f62d0000f62d0000f62d0000ea
:10028800f62d0000f62d0000f62d0000142c0000bd
:10029800f62d0000f62d0000b22b0000f62d000010
:1002a800f62d0000f62d0000f62d0000f62d0000ba
:1002b800f62d0000f62d0000f62d0000f62d0000aa
:1002c800f62d0000f62d0000f62d0000f62d00009a
:1002d800f62d0000f62d0000f62d0000f62d00008a
:1002e800f62d0000f62d0000f62d0000f62d00007a
:1002f800f62d0000f62d0000f62d0000f62d00006a
:10030800f62d0000f62d0000f62d0000f62d000059
:10031800f62d0000f62d0000f62d0000f62d000049
:10032800f62d0000f62d0000f62d0000f62d000039
:10033800f62d0000f62d0000f62d0000f62d000029
:10034800f62d0000f62d0000f62d0000f62d000019
:10035800f62d0000f62d0000f62d0000f62d000009
:10036800f62d0000f62d0000f62d0000f62d0000f9
:10037800f62d0000f62d0000f62d0000f62d0000e9
:10038800f62d0000f62d0000f62d0000f62d0000d9
:10039800f62d0000f62d0000f62d0000f62d0000c9
:1003a800f62d0000f62d0000f62d0000f62d0000b9
:1003b800f62d0000f62d0000f62d0000f62d0000a9
:1003c800f62d0000f62d0000f62d0000f62d000099
:1003d800f62d0000f62d0000f62d0000f62d000089
:1003e800f62d0000f62d0000f62d0000f62d000079
:0803f800f62d0000f62d0000b7
:020000040000fa
:10040000efcb21000e7f22000e01880000000000cb
:100410000c000700805b2200010020001100070093
:10042000000020000000e000020032000000020096
:1004300000000000b42d0200000000000040da00bf
:100440000000fe004440a900a00420000000e000dd
:100450000300320000002000a00188004440a800f2
:100460000000060091018800800078000000eb0089
:1004700015003700e280400032a0b4009101ba00bc
:10048000e280400032a0b4009102ba00e280400055
:1004900032a0b4000002eb00472bde00f507b200eb
:1004a000602ce10004003a000059eb008301e900f0
:1004b000fdff3e00040037006128e100010032002a
:1004c0000082eb00040007001101ba000200e00006
:1004d000e8ff3a00000006003159ba008301e90044
:1004e0000c0032002159ba008301e90008003200f3
:1004f0000400e00003003a00e280400032a0b400b3
:10050000f5ff370011d9ba008301e900faff3a007c
:100510008100e800e180400032a0b4000000060045
:100520005c2c040000000000f02d0400000000001e
:10053000d62d0400000000000000fa0099a0a900d8
:1005400001e6a90089a0a9000080fa0000000600c9
:100550000a00fa00000f780011079800220798009f
:1005600033079800044f98000000eb0070308800bb
:1005700099a0a90089a0a900d1058000f0f82f005a
:1005800000806000d00588001e00780000308800e0
:100590001e009000103088002e009000603088000f
:1005a0003e009000203088000e48900067406000b8
:1005b00067406000674060000080fb0067006000eb
:1005c0004400dd00d2058000f1f82f0081006100b9
:1005d00000807000d00588000e4890000080fb006d
:1005e000680060004380de000040780061406000e9
:1005f0000080fb00610060004d00dd00c20480004f
:10060000f1ff2d008100610000807000c0048800af
:1006100001e6a8000080fa00000006000200fa00cf
:10062000000f78001e007800203088000080fa005b
:1006300000000600889fbe008a9fbe003004be00f6
:100640002005be000404440085844c0006054d00ce
:1006500087854d000898be000a90be000440e10066
:1006600005c8e10006d0e10007d8e1000200310032
:10067000680040001008e8004f05be004f04be00af
:1006800000000600889fbe008a9fbe008c1f780075
:10069000000678003c04be002c05be000400540097
:1006a00085805c0006015d0087815d00009ebe00c4
:1006b000029ebe00100020000440e10005c8e100d9
:1006c00006d0e10007d8e100010039000000eb008e
:1006d0001c0e10004f0678004f05be004f04be00f0
:1006e000000006001200fa00889fbe008a9fbe002c
:1006f0008c9fbe000205be000004be00e4b79f0050
:10070000f5b79f0086bf9f0097bf9f000000eb00da
:10071000d0b79f00c0b79f00b0b79f00a0b79f00a1
:1007200090b79f0000067800fd032000dfb197001e
:100730004fb0970003814100bfb09700e08f510098
:1007400004003d00290007007e805700b9ff070024
:1007500003003700250007007e805700c9ff07000f
:10076000dfb09700e08f5000070035001400200034
:10077000050020006033b80008047200898472000c
:100780000a0573008b8573000c06e8008d0f560078
:10079000e6ff3400e08f500006003d006fb2970086
:1007a000ffb297000fbb97009fbb97007e8057005a
:1007b000a0ff07005fa89700e00f500004003a0078
:1007c0001fb49700afb497003fb59700cfb597001f
:1007d0000800be000a01be004f06be004f05be0065
:1007e0004f04be000080fa0000000600cf01de00ca
:1007f00002817100b2b79f004f09de000000400087
:1008000000007100a0b79f000fb097004f01de00fd
:10081000818040008100710091b79f007faa9700fe
:10082000cf20de00000040000080700080b79f00f5
:100830000800be000a01be004f18de00040242009c
:1008400000027200f4af9f000804440089844c0049
:100850000a054d008b854d004fb29700dfb297001f
:100860006fb39700ffb3970000000600881f780061
:1008700018002000881f78009aff07008f87e90082
:100880004f04780000000600801feb0095ff070072
:100890008f87e90000000600889fbe008a9fbe0087
:1008a0008c1f7800e00f5000e08f5800e00f5900d7
:1008b000e08f59000f003d006044b8006055b8005b
:1008c0000000540081805c0002015d0083815d00b6
:1008d0001c0020000820e10009a8e1000ab0e100a6
:1008e0000bb8e1000d003d00190007000006eb0009
:1008f0000a0037000006eb00e00f5200e08f5a00bc
:10090000e00f5b00e08f5b0004003d006044b80036
:100910006055b8000e0007001c002000d3ff070040
:10092000e00f5600060032006022b8006033b800c5
:100930000000520081805a0002015b0083815b004d
:100940004f0678004f05be004f04be0000000600b1
:100950000402540085825c0006035d0087835d000d
:1009600000000600889fbe008a9fbe008c1f780092
:10097000e00f5000e08f5800e00f5900e08f590061
:100980000d003d006044b8006055b8000000540000
:1009900081805c0002015d0083815d001c002000fd
:1009a0000820e10009a8e1000ab0e1000bb8e1006d
:1009b0000d003d00080037000006eb00e00f52007c
:1009c000e08f5a00e00f5b00e08f5b0006003d0007
:1009d0006044b8006055b8000402540085825c0091
:1009e00006035d0087835d00a7ff0700e00f560048
:1009f000060032006022b8006033b80000005200e8
:100a000081805a0002015b0083815b004f06780001
:100a10004f05be004f04be0000000600e6874700f9
:100a20008e1f7800d0bf9f0066875700012f780087
:100a30000e003700dfb99700134178006fb89700b8
:100a400090407800814f5100040032000280fb008a
:100a50008180fb0001005000080037008301e8009e
:100a6000d3bf9f00000fe800040178000202e900f4
:100a7000e00f5100efff3a00020078004f077800c6
:100a80006f00b1000000060080017800020037000e
:100a9000b1597800040178000202e900e00f51002a
:100aa000fbff3a00000006008001780002003700da
:100ab00081597800040178000202e900e00f51003a
:080ac000fbff3a0000000600f4
:020000040000fa
:100ac80011110000222200003333000044440000ca
:100ad800555500006666000077770000888800009a
:100ae80099990000aaaa0000bbbb0000cccc00006a
:100af800dddd0000eeee0000cecd0000acab000066
:100b0800494400004c45000000a50000a5a50000d0
:100b1800a5a50000a5a50000a5a50000a5a50000a5
:100b2800a5a50000a5a50000a5a50000a5a5000095
:100b3800a500000054610000736b00002031000024
:100b48000000000054610000736b000020320000b8
:040b58000000000099
:020000040000fa
:100b5c001200fa005007980061079800720798007d
:100b6c00030f98000000eb00000f78005e0090006f
:100b7c00100798000100370000000000e211070088
:100b8c001e00900060089000e00f5000350032000d
:100b9c001e009000b000900021079800ee0090001d
:100bac001e0090002a0e07000e089000e00f500067
:100bbc001a003a001e009000600890008000e900c6
:100bcc001e009000610898001e0090001000780034
:100bdc00e00f500004003a003f130700800078003b
:100bec001e009000110098001e0090004000900024
:100bfc00e00f5000180032001e009000680040000a
:100c0c00970a0700e10f500013003a000821020078
:100c1c0000000000000000000f0037001e009000d4
:100c2c00ae009000310098001e009000100890005b
:100c3c00e00f5000080032001e00900072004000cf
:100c4c00870a0700e00f5000030032000821020061
:100c5c000000000000000000be1107001000200082
:100c6c00460037007e009000e00f500003003a0071
:100c7c00b81107000000eb00400037001e007800a0
:100c8c00e00f500004003a006600470032130700e2
:100c9c0010002000000f7800ae110700931307001e
:100cac00991107001e00900010109000e10f4000f9
:100cbc0003003a001e0090008000eb001110980019
:100ccc001e00900020109000e10f400003003a003d
:100cdc001e0090008000eb00211098009d11070071
:100cec00ee00470066004700940a0700e00f500032
:100cfc001e003a001e00900016120700e00f500074
:100d0c00160032001e00900010007800e00f50001a
:100d1c0005003a007c1107001e00900010009000a6
:100d2c002c0907008b110700fe0090001e0090009c
:100d3c0072004000c20f07001e0090009e090700c1
:100d4c0023060700e00f50008bff3a000821020039
:100d5c00000000000000000088ff37001e0090001b
:100d6c00950907001a06070084ff37001e00900043
:100d7c0091090700160607000000eb000080fa003e
:040d8c00000006005d
:020000040000fa
:100d90001600fa00000f9800110f9800220f98001b
:100da0000e0890001007980090028000200798001d
:100db000ff3ffc0011028000f0f12f0080806000f6
:100dc0000002200000807000100288002e009000b9
:100dd0009002880000008800000000001e009000c3
:100de00060089000e00f500020003a002e089000ac
:100df000e00f5000110032001e0090007200400011
:100e0000800078002e089000710d0700900280008d
:100e100030079800ff3ffc0011028000f0f12f0026
:100e200000806000100288003e0090009002880060
:100e300000008800c0ff2f00600037009002800093
:100e400040079800ff3ffc0011028000f0f12f00e6
:100e500000806000100288004e0090009002880020
:100e6000000088000000eb00540037009002800072
:100e700050079800ff3ffc0011028000f0f12f00a6
:100e800000806000100288005e00900090028800e0
:100e9000000088009002800060079800ff3ffc007f
:100ea00011028000f0f12f0080806000000220001d
:100eb00000807000100288006e0090009002880090
:100ec00000008800000000001e00900060089000f4
:100ed000e00f50002c0032001e009000b000900087
:100ee0001e00900000109000808040001e009000c6
:100ef000310098001e009000b00090001e0090008d
:100f000010009000808f5000040039001e009000f7
:100f1000900078001e009000310098001e009000a4
:100f2000600890008000e9001e00900061089800b1
:100f30001e009000801090001e0090003000900075
:100f400001017800800078001e089000cefe0700a6
:100f500010002000000f78001e009000400090005c
:100f6000e00f50000a0032001e00900068004000b0
:100f7000730e0700e00f500005003200b0ff2f0095
:100f8000000f7800020037000000eb00000f78002f
:100f90009002800070079800ff3ffc001102800063
:100fa000f0f12f0000806000100288007e009000a9
:100fb00090028800000088001e0078000080fa007f
:040fc0000000060027
:020000040000fa
:100fc4001400fa004007980052079800630798003d
:100fd40071079800040f9800150f98001000200066
:100fe400000f78004e009000100798000000eb00fe
:100ff400200798000e089000e00f50000500320012
:101004001e009000b0109000201090000e09900077
:101014000089be001e009000c010900031079800a7
:101024001e00900021002000411098007e009000d6
:10103400010020004200200003002000820f500025
:10104400838f58002d003e00006001002a00370005
:10105400030037000d003700150037001a00370071
:101064001e00900020119000b01190005e009000ce
:10107400ee00900000007100818071001e0190005c
:1010840020119800311198001c0037001e009000b8
:10109400b01090002010900061004000e0804800f3
:1010a4001e019000201198003111980013003700a0
:1010b4001e0090005e019000ee0190002210980046
:1010c400331098000d0037003e009000e20f5000ee
:1010d400060032001e0090005e019000ee019000b8
:1010e4002210980033109800040037000000eb0031
:1010f400000f780001003700000000003e0090005f
:10110400e10f50002a003a0050e38000e00f500045
:1011140016003a001e0090000080e800630c0700ef
:101124001e009000b0089000e0e28000808f500024
:10113400030036001e00900030089000e0e28800b2
:101144001e0090000081e8001e009000300890000e
:101154006a00b9008000780040c02100008040008f
:1011640082007800830d0700050037001e00900000
:101174006c0040008000780040c421007d0d070011
:101184001e009000b0089000d0e580003008900068
:10119400808f5000060036001e089000e00f5000bb
:1011a400030032001e08900011002000010878009e
:0c11b4001e0078000080fa000000060019
:020000040000fa
:1011c0001600fa00000f9800110f9800220f9800e7
:1011d0000e089000100798009002800020079800e9
:1011e000ff3ffc0011028000f0f12f0080806000c2
:1011f0000002200000807000100288002e00900085
:101200009002880000008800000000001e0090008e
:101210009f100700e00f5000200032002e089000c1
:10122000e00f5000110032001e00900068004000e6
:10123000800078002e089000650c07009002800066
:1012400030079800ff3ffc0011028000f0f12f00f2
:1012500000806000100288003e009000900288002c
:1012600000008800c0ff2f00480037009002800077
:1012700040079800ff3ffc0011028000f0f12f00b2
:1012800000806000100288004e00900090028800ec
:10129000000088000000eb003c0037009002800056
:1012a00050079800ff3ffc0011028000f0f12f0072
:1012b00000806000100288005e00900090028800ac
:1012c000000088009002800060079800ff3ffc004b
:1012d00011028000f0f12f008080600000022000e9
:1012e00000807000100288006e009000900288005c
:1012f00000008800000000001e009000e008900040
:101300001e00900070089000808f50001200310085
:101310000001eb009e0890001e0090008f03070064
:1013200010002000000f78001e00900010089000b0
:10133000e00f50000a0032001e00900072004000d2
:101340007f0d0700e00f500005003200b0ff2f00b6
:10135000000f7800020037000000eb00000f78005b
:101360009002800070079800ff3ffc00110280008f
:10137000f0f12f0000806000100288007e009000d5
:1013800090028800000088001e0078000080fa00ab
:041390000000060053
:020000040000fa
:101394001600fa0030079800410798005207980099
:1013a4006307980074079800050f9800160f9800bb
:1013b400270f98009e0890005e009000410b0700e4
:1013c400100798001e009000e00f50004f003200fc
:1013d4001e009000c0089000210798001e00900095
:1013e400c00890005e0090000000e900000040008a
:1013f400808040001e009000710898005e029000fa
:10140400ae0990007e019000ce0090001e00900076
:10141400e90507006e019000be0090002e009000c8
:1014240055050700800078001e0090000108780030
:101434000e089000e00f5000030032000e089000e8
:101444009e00900001087800b10f0700c0e2800000
:101454000000e800c0e28800d0e58000e00f500002
:1014640007003a001e009000d0e58800c0e280002a
:10147400e10f50000c003a00f80c07000a00370096
:10148400f0e28000e00f500007003a00d0e5800051
:10149400b00890007e009000808f500002003e0053
:1014a4009e009000d1e5880030e380000000e80051
:1014b40030e388001e009000b0089000e0e2800055
:1014c400808f5000030036001e009000300890000a
:1014d400e0e288001e0090000081e8001e009000f9
:1014e400300890006a00b9008000780040c02100f4
:1014f40000804000820078009e0c0700100020004d
:10150400000f7800950f0700020037000080eb0001
:10151400000f78001e007800e10f50000b003a0025
:10152400f0e28000e00f500008003200d0e58000b7
:10153400b00890007e009000808f500003003100be
:101544000821020000000000000000001e007800d6
:081554000080fa00000006000f
:020000040000fa
:10155c001000fa00300798004207980053079800d3
:10156c00610798007407980010002000000f7800a5
:10157c003e00900010079800630f07007e0090005b
:10158c00e00f5000050032001e009000b0109000db
:10159c00201090007e0190000089be001e0090007b
:1015ac00c0109000210798001e0090002100200020
:1015bc00411098006e0090000100200042002000b5
:1015cc0003002000820f5000838f58002d003e0036
:1015dc00006001002a003700030037000d003700bf
:1015ec00150037001a0037001e00900020119000e3
:1015fc00b01190004e009000de00900000007100d1
:10160c00818071001e01900020119800311198000a
:10161c001c0037001e009000b010900020109000ad
:10162c0061004000e08048001e01900020119800ed
:10163c0031119800130037001e0090004e019000ed
:10164c00de01900022109800331098000d00370036
:10165c002e009000e20f5000060032001e00900099
:10166c004e019000de01900022109800331098007b
:10167c00040037000000eb00000f78000100370079
:10168c00000000002e009000e10f50001e003a00f8
:10169c001e0090000080e800020b07001e00900066
:1016ac00b0089000e0e28000808f5000030036000c
:1016bc001e00900030089000e0e288001e009000b0
:1016cc000081e8001e009000300890006a00b9000c
:1016dc008000780040c0210000804000820078002b
:1016ec00220c07001e009000b0089000d0e580008e
:1016fc0030089000808f5000030036000821020053
:10170c000000000000000000120f07001e0078000f
:08171c000080fa000000060045
:020000040000fa
:101724001800fa0070079800010f9800120f980033
:10173400230f9800340f98007e0090002007980033
:101744000000eb00100798000000eb003007980041
:10175400e81007002e0090009000780041079800e0
:101764002e0990008e0890004e0090008f0c070008
:10177400500798005e009000e00f50000f00320008
:101784004e009000000f78000000eb00300f98002e
:101794001e089000e00f5000250032002e0090003b
:1017a400900078000e0890000080ea0080806000bd
:1017b4002e009000010878001d0037003e089000bc
:1017c400e00f500003003a00ce009000010f7800b3
:1017d400170037001e089000e00f5000040032008c
:1017e4009e009000001020000080700010079800f8
:1017f4002e089000e00f5000040032009e0090007c
:101804000040200000807000100798008e089000af
:101814001e009000808070002e0090000080e80080
:101824003e099000930b07000000eb00000f7800c6
:1018340069030700600798003e089000e00f50001d
:10184400240032006e009000e00f500003003a00c4
:10185400082102000000000000000000cd0f070076
:10186400000f7800002020001e006000e00f5000f0
:1018740016003a00a60e07002e009000100f780004
:101884002e0990008e0890001e007800470c070077
:10189400e00f50000a0032001e089000e00f5000d4
:1018a400070032002e009000900078000e0890008f
:1018b4000080ea00808060002e009000010878001b
:1018c400a60e07000000eb0030079800f00f200080
:1018d4001e0f60001e0078000080fa000000060061
:020000040000fa
:1018e4001200fa00500798006107980072079800e8
:1018f400030f98000000eb00000f78005e009000da
:10190400100798000100370000000000800e070057
:101914001e009000e00890001e00900070089000e7
:10192400808f5000030039000e089000e20f500031
:101934001b003a000e099000ee0090001e0090007b
:1019440005020700200798001e0090001008900070
:10195400e00f5000090032001e00900072004000a9
:1019640041070700e10f50000a003a000821020075
:101974000000000000000000060037002e00900068
:10198400e00f5000030032000821020000000000b4
:1019940000000000710e0700100020003d00370019
:1019a4007e009000e00f500003003a006b0e070029
:1019b4000000eb00370037001e007800e00f5000f5
:1019c40004003a0066004700e50f070010002000fd
:1019d400000f7800610e0700461007004c0e070048
:1019e4001e00900010109000e10f400003003a0028
:1019f4001e0090008000eb00111098001e00900063
:101a040020109000e10f400003003a001e009000f7
:101a14008000eb0021109800500e0700ee004700f4
:101a24006600470047070700e00f500015003a0022
:101a34001e009000950e0700e00f50000d003200cc
:101a4400fe0090001e009000680040007e0c07001d
:101a54001e0090005a060700df020700e00f500046
:101a6400a9ff3a0008210200000000000000000065
:101a7400a6ff37001e00900051060700d60207009b
:101a8400a2ff37001e0090004d060700d202070097
:0c1a94000000eb000080fa0000000600db
:020000040000fa
:101aa0000a00fa000000eb00000f780050e380000d
:101ab000e00f50005e003a00d0e280000000e80035
:101ac000d0e28800d0e28000100798001e0090004d
:101ad000e00f50000a003a0001e280002107980060
:101ae00010e2800000e288002e00900010e28800e2
:101af00020e380000000e80020e38800760e070065
:101b000040e380009e009000808f50003c00390030
:101b1000010037000000000000e2800010007800a3
:101b2000e00f500003003a000080eb0040e3880023
:101b30003300370000e28000300090003000900059
:101b4000300798003e0090009000900041079800f8
:101b50009e0090004e009000808f500003003100e6
:101b60004e00900040e38800250037003e009000c2
:101b70000080e800ce0907003e0090002008900099
:101b8000e00f5000030032003e0090006c00400067
:101b9000c70907003e009000b0089000e0e2800016
:101ba000808f5000030036003e0090003008900007
:101bb000e0e288003e0090000081e8003e009000d6
:101bc000300890006a00b9008000780040c0210011
:101bd0000080400082007800e70a07003e00900085
:101be000b0089000d0e5800030089000808f500051
:101bf000c8ff390010002000000f7800c6ff370032
:101c0000d0e58000300890006a00b90080007800bc
:101c100040c021000080400010007800e10f50001b
:101c20000600360010002000000f78000300370087
:101c300000e380000000e80000e3880010e380007b
:101c4000e00f50000200320010002000000f78006a
:0c1c50001e0078000080fa000000060072
:020000040000fa
:101c5c000c00fa0040079800510798000000eb00b8
:101c6c00000f78005e009000e30f50000200360079
:101c7c003000200050079800a30d07004e00900084
:101c8c00e00f500002003a00d0e580000100370060
:101c9c004e009000100798001e00900080109000dd
:101cac0021079800ae0090005e009000808f5000dd
:101cbc0051003200de0090002e009000808f50000a
:101ccc000c003600d0e580009e009000808f500004
:101cdc000e003200d0e58000b00890005e0090004d
:101cec00808f500009003e0010002000000f78008b
:101cfc0006003700d0e580009e009000808f5000d9
:101d0c0002003a0010002000000f78001e00900026
:101d1c00b0089000310798001e00900080109000d1
:101d2c001e00900030089000808f500003003a0095
:101d3c001e009000de009000310898001e009000fc
:101d4c00de009000011098001e00900060009000d2
:101d5c00e00f5000040035005e009000e40010001d
:101d6c001e009000610098001e0090005001900031
:101d7c003e0090006a00b9008000780040c021004d
:101d8c0000804000800f510015003a001e009000aa
:101d9c000080e800430907001e009000b008900086
:101dac00e0e28000808f5000030036001e0090009f
:101dbc0030089000e0e288001e0090000081e800ee
:101dcc001e009000300890006a00b9008000780076
:101ddc0040c021000080400082007800630a0700a8
:101dec001e007800e10f500003003a0008210200a9
:101dfc000000000000000000560d07000080fa00f3
:041e0c0000000600cc
:020000040000fa
:101e10001000fa0020079800310798004207980048
:101e2000530798006407980075079800390d07005c
:101e3000d0e5800040109000e20f500031003200e9
:101e4000d4e5800024119000b41190002e00900081
:101e5000be0090000080ea008180ea0082027800e3
:101e6000030178008001780001007800838262001d
:101e70000000610001002000c000dd000000200023
:101e80000001be006128b80000017100818171006d
:101e90002212980033129800d0e580001100200033
:101ea000411098007e009000e00f500015003200b5
:101eb000d0e580000080e800fd0807007e0090006b
:101ec000e10f400006003a00d0e580000080e80005
:101ed00080007800e0c42100270a070006003700d0
:101ee000d1e280007e009000008040001007980042
:101ef0001e009000700b0700082102000000000087
:101f000000000000160d0700020d07006e00900093
:101f1000e00f500005003200d0e58000b0109000c6
:101f2000201090006e0190000089be00d0e5800076
:101f300040109000e10f500003003a000000eb0059
:101f4000000f780018003700d4e5800024119000bd
:101f5000b41190004e009000de0090000080ea0076
:101f60008180ea0082027800030178008001780015
:101f700001007800838262000000610001002000ff
:101f8000c000dd00000020000001be006128b80094
:101f900000017100818171002212980033129800b3
:101fa00010002000000f7800d0e580008000eb00da
:101fb00041109800ea0c07001e0078000080fa002b
:041fc0000000060017
:020000040000fa
:101fc4001600fa00100f9800210f98000000eb0093
:101fd400100798001e089000300798000000eb00de
:101fe400200798003e0090000080e8004007980019
:101ff4004e0090006400400050079800bd0e07009a
:102004004e009000b0009000010f78003e00900058
:10201400900078002e089000808070003e009000b0
:10202400010878003c0037001e0078009000900002
:10203400610798001e0078009000780071079800ee
:102044000000eb0020079800fe00900000f02f0035
:1020540000806000000f9800fe009000f00f200048
:1020640000806000700798008e08900000402000f7
:1020740000806000e00f500009003a003e0090002c
:10208400900078007e00900000806000e00f500017
:102094000c003200100020002007980009003700cf
:1020a4003e009000900078007e00900080806000e8
:1020b4007e009000808f500002003a001000200043
:1020c400200798002e009000e00f5000100032000e
:1020d4008e0890000010200000806000e00f500087
:1020e400040032009e0090007e009000008070008a
:1020f400100798003e009000900078000020200017
:1021040000807000800078001e0078002e07070011
:102114006e009000000f78005e0090009e00780032
:10212400808f5000c0ff3a003e009000900078007d
:102134001e0090000080ea00808060003e00900055
:1021440001087800240107003e0090001000780088
:082154000080fa000000060003
:020000040000fa
:10215c000800fa0010079800210798003207980031
:10216c000000eb00000f78001e00900000109000a3
:10217c00e00f50000c003a001e0090001000780098
:10218c00e00f50004d003a001e009000100090002f
:10219c004e040700000f78001e0090008000eb003a
:1021ac0011009800450037003e009000e00f5000f1
:1021bc0019003a001e009000801090001e00900044
:1021cc002000900001017800ae0090002bfa07006f
:1021dc001e009000a00090001e00900000109000c7
:1021ec00808040001e009000210098001e0090008e
:1021fc00a00090001e00900010009000808f5000f6
:10220c002e0039001e009000900078001e009000f7
:10221c0021009800290037001e00900080109000cb
:10222c001e0090003000900001017800ae0090007c
:10223c0012fa07001e009000b00090001e009000e3
:10224c00001090000000ea00808040001e0090000a
:10225c00310098001e009000b00090001e0090000d
:10226c0010007800808f5000080031001e00900094
:10227c00900090001e009000001090000000ea00fa
:10228c00808040001e009000310098003e009000bd
:10229c00e20f500009003a001e0090006008900008
:1022ac00e00f5000050032001e0090006008900006
:1022bc008000e9001e009000610898001e0090004c
:1022cc00600890008000e8001e00900061089800f3
:0c22dc001e0078000080fa0000000600e0
:020000040000fa
:1022e8000800fa00dd0d070031e58000010050000c
:1022f80040e588005400370020e580000000e80031
:1023080020e5880040e580000000e90040e58800fd
:1023180020e58000e00f500044003a00a0e480006f
:10232800000f7800b0e48000a0e488001e00780068
:10233800b0e488003e003700a0e480003000900040
:1023480030009000100798001e0090009000900048
:1023580020e58000808f50003a003e009002800007
:1023680020079800ff3ffc0011028000f0f12f00c9
:102378008080600000022000008070001002880049
:102388002e009000900288000000880000000000e5
:102398001e0090000080e800c30707001e009000a0
:1023a80020089000e00f5000030032001e0090004b
:1023b8006c004000bc0707009002800030079800be
:1023c800ff3ffc0011028000f0f12f000080600048
:1023d800100288003e0090009002880000008800eb
:1023e8001e009000b008900010e58000808f50001b
:1023f800030036001e0090003008900010e58800a9
:102408001e0090000081e8001e0090003008900037
:102418006a00b90080007800c0c621000080400032
:1024280082007800d2080700010037000000000091
:10243800a0e4800010007800e00f5000beff3a00d2
:10244800010037000000000040e58000e00f500068
:10245800a9ff3a0020e5800030e588000080fa00f6
:04246800000006006a
:020000040000fa
:10246c001200fa0050079800610798007207980054
:10247c00030f98005e009000100798000000eb001e
:10248c0020079800990d07001e009000900078001e
:10249c0031079800ee0090005e009000c6fe070029
:1024ac00be0090006e009000808070007e00900056
:1024bc00808060007e009000808f50000d003a00fc
:1024cc00be0090006e009000008f70001e00900007
:1024dc00900078007e0090000080ea008080600010
:1024ec001e009000010878000000eb00000f98001f
:1024fc000f0037000e089000e00f50000a00320069
:10250c00fe00900000502000808070001e009000a3
:10251c000080e8000e099000540807000000eb0052
:10252c00000f7800020037001e009000100f78009a
:10253c0027000700400798000e089000e00f50009d
:10254c00200032004e009000e00f500003003a00d3
:10255c000821020000000000000000008b0c0700a6
:10256c00000f7800002020001e006000e00f5000db
:10257c0012003a00640b07001e009000100f780048
:10258c007e0090009e0060007e009000808f5000c6
:10259c0007003a001e009000900078007e0090002a
:1025ac000080ea00808060001e0090000108780026
:1025bc00680b07001000200020079800f00f200087
:1025cc001e0f60001e0078000080fa00000006005c
:020000040000fa
:1025dc000400fa000000eb00000f78004a0b070023
:1025ec0050e380000000e90050e3880050e38000d5
:1025fc00e00f500041003a00c0e28000e00f5000b4
:10260c003e0032002300370050e280003000900082
:10261c00100798001e0090006c0040002107070076
:10262c001e0090000080e8001e0707001e009000ae
:10263c00b0089000e0e28000808f5000030036006c
:10264c001e00900030089000e0e288001e00900010
:10265c000081e8001e009000300890006a00b9006c
:10266c008000780040c0210000804000820078008b
:10267c003e0807001e009000b0089000d0e58000d6
:10268c0030089000808f50000200390010002000ac
:10269c0010e3880020e28000e00f5000daff3a00df
:1026ac0000e38000e00f50000c00320008003700ff
:1026bc00f8fc0700e00f5000020032001000200070
:1026cc0010e3880000e380000000e90000e38800cc
:1026dc0000e38000e00f5000f5ff3a0010e38000ab
:1026ec00e10f500005003a0010002000000f7800a8
:1026fc00082102000000000000000000150b07007c
:0c270c001e0078000080fa0000000600ab
:020000040000fa
:102718000000fa006e0a070000cc250051012000d5
:10272800a0e58800b1e58800a0e58000b1e580005b
:1027380000007800a70c0700406a20000100200074
:10274800a0e58800b1e588008003200040308800bb
:10275800a0e58000b1e58000000078009d0c07002e
:1027680000cc250051012000a0e58800b1e58800d3
:10277800a0e58000b1e5800000007800950c070016
:10278800406a200001002000a0e58800b1e588002b
:10279800c000200040308800a0e58000b1e580003e
:1027a800000078008b0c070000cc250051012000a8
:1027b800a0e58800b1e58800a0e58000b1e58000cb
:1027c80000007800830c0700007d20000100200035
:1027d800a0e58800b1e5880010002000403088009e
:1027e800a0e58000b1e5800000007800790c0700c2
:1027f80000cc250051012000a0e58800b1e5880043
:10280800a0e58000b1e5800000007800710c0700a9
:10281800007d200001002000a0e58800b1e58800c7
:102828006000200040308800a0e58000b1e580000d
:1028380000007800670c07000e0a0700c8090700a7
:082848000080fa000000060008
:020000040000fa
:102850000a00fa0020079800310798004207980004
:10286000c0012000eb050700100798001e00900033
:10287000e00f50003c003200e0e58000e00f500027
:1028800003003a001e009000e0e5880024090700dc
:102890003e009000e10f50000200360010002000c2
:1028a000300798001e0090008000eb00510898004f
:1028b0001e009000be009000310898001e0090009d
:1028c000ce009000410898001e009000ae009000dd
:1028d000010878001e0090000080e800790c0700d5
:1028e0001e0090006c004000760c07001e00900057
:1028f0009e009000410098001e0090009e009000f5
:10290000110898003e009000e20010001e009000a8
:10291000610098001e009000b008900010e5800053
:10292000808f5000030036001e0090003008900099
:1029300010e588001e0090000081e8001e00900055
:10294000300890006a00b90080007800c0c62100fd
:1029500000804000820078008707070010002000f8
:10296000000f7800020037000080eb00000f7800b5
:0c2970001e0078000080fa000000060045
:020000040000fa
:10297c002a00fa0020179800311798004217980087
:10298c000e0078004000b000415628000f000900ee
:10299c00311878003e109000100798002e1090000f
:1029ac009e009000010878002e1090000080e80036
:1029bc00201798002e1090008000eb000108780082
:1029cc002e1090000080e800201798002e10900028
:1029dc008000eb00010878002e1090000080e800c9
:1029ec0020179800ce1090002e109000010878004f
:1029fc002e1090000080e800201798000000eb00db
:102a0c00000f78000a0037001e007800000040001c
:102a1c0000004700a00090002e10900001087800e4
:102a2c002e1090000080e800201798001e0fe80080
:102a3c001e007800ef0f5000f3ff360021028000db
:102a4c002e109000010878002e1090000080e800f5
:102a5c002017980034c0bf008080fb002e1090001f
:102a6c00010878002e1090000080e80020179800d4
:102a7c002e1090008000eb00010878002e109000c2
:102a8c000080e800201798002e1090000080fa00bb
:042a9c000000060030
:020000040000fa
:102aa0000a00fa003007980041079800190a070049
:102ab000d0e58000b010900020109000e00f500092
:102ac000e08f58001a003a00d0e580001100200085
:102ad000411098004e009000e00f500014003200aa
:102ae000d0e580000080e800f10507004e0090006e
:102af000e10f400006003a00d0e580000080e800c9
:102b000080007800e0c421001b07070005003700a3
:102b1000d1e280004e009000008f40001e0078003f
:102b20006508070008210200000000000000000006
:102b30000b0a0700f7090700d0e58000201190007c
:102b4000b011900012079800230798001e00900013
:102b5000ae009000e00f5000e08f58000f003200f0
:102b60003e009000e00f500005003200d2e58000ea
:102b70006000b8002011980031119800070037005c
:102b8000d2e5800022109000b21090006100500049
:102b9000e08058002011980031119800d0e58000a5
:102ba0008000eb0041109800ed0907001e00900026
:0c2bb000ae0090000080fa00000006005b
:020000040000fa
:102bbc000c00fa00100798002107980032079800c3
:102bcc0043079800540798000000eb00000f7800b2
:102bdc000d0037002e0090001e00400010407800c1
:102bec009e0090009e804000fa8040008048780053
:102bfc002e0090001e00400010407800e04f500066
:102c0c00050032001e0fe8001e007800e30f500094
:102c1c00f0ff360001003700000000009e0090001d
:102c2c000040eb00d05898003e009000e30f50009d
:102c3c000200360030002000300798001e00900083
:102c4c00be009000310898001e009000be0090005d
:102c5c00011098001e0090008000eb0011109800ed
:102c6c001e0090000080e800930b07001e009000ef
:102c7c006c004000900b07001e0090009e0090001e
:102c8c00410098003e009000e40010001e009000ef
:102c9c00610098001e0090009e00900011089800a2
:102cac001e0190006000b8002011980031119800ae
:102cbc001e0090008000eb00411098000080fa008c
:042ccc0000000600fe
:020000040000fa
:102cd0000600fa0010079800210798001e009000d7
:102ce000000f78008b0907001e00780010017800a3
:102cf0001e007800f00890001e0078000010900080
:102d00000088b90000007800800041001e007800b3
:102d1000110098001e0078008000eb006108980008
:102d20001e007800900078001e00780021009800b6
:102d30001e007800100178001e00780070089000d6
:102d40008000e9001e007800001090000088b900a3
:102d500000007800800041001e00780031009800db
:102d60001e0078008080eb00111098001e00780093
:102d70008080eb00211098002e009000e00f5000a2
:102d80000d003a001e00780040009000e00f500057
:102d90000f0032009e007800688040003302070078
:102da000e10f50000a003a00082102000000000074
:102db00000000000060037009e0078006880400098
:102dc000f10707009e00780072804000ee070700c0
:102dd00063090700100020000080fa0000000600d0
:020000040000fa
:102de0000a00fa0030079800410798003e00900062
:102df000000f78000000eb00100798001e0078001c
:102e0000c0109000210798001e00780021002000cb
:102e1000411098001e007800b01090002010900023
:102e200061004000e08048001e01780020119800f9
:102e3000311198002e009000e10f500028003a0058
:102e400050e38000e00f500014003a001e80e800bc
:102e5000170507001e007800b0089000e0e280002f
:102e6000808f5000030036001e007800300890006c
:102e7000e0e288001e81e8001e0078003008900023
:102e80006a00b9008000780040c021000080400046
:102e90008200780038060700050037009e007800a1
:102ea0006c8040008000780040c42100320607009a
:102eb0001e007800b0089000d0e580003008900037
:102ec000808f5000060036004e009000e00f50004a
:102ed000030032004e00900011002000010878002d
:082ee0000080fa00000006006a
:020000040000fa
:102ee8000a00fa0020079800310798004207980066
:102ef8002e009000100798001e00900060089000b7
:102f0800e00f5000310032001e009000b000900029
:102f18001e00900000109000808040001e0090006d
:102f2800310098001e009000b00090001e00900034
:102f380010009000808f5000040039001e0090009f
:102f4800900078001e009000310098001e0090004c
:102f5800600890008000e9001e0090006108980059
:102f68001e009000801090001e009000300090001d
:102f780001017800800078003e009000c0f607004c
:102f88004e00900010007800e00f50000c003a004e
:102f98001e00900040009000e00f50000800320032
:102fa8001e0090006800400063060700e00f500014
:102fb800030032004e009000110020000108780044
:102fc80010002000000f7800020037000000eb001e
:102fd800000f78001e0078000080fa00000006004c
:020000040000fa
:102fe8000400fa0050e38000e00f500003003200b4
:102ff8001000200010e38800370037000000eb00c5
:1030080010e38800d0e5800070089000000f780079
:103018001e007800740f50004201200091582800cb
:103028001e0078007bf60700e00f50000800320011
:10303800d0e58000fa004000d0e58000d50a0700fe
:1030480003003700e0e280000000e900e0e28800c9
:10305800e0e280006a00b9008000780040c02100ea
:103068000080400010007800e00f5000f5ff3200ab
:10307800e0e280006a00b9008000780040c02100ca
:1030880000804000100798001e009000100090007b
:10309800900090001e009000110098001e00900003
:1030a800900090001e00900064004000808f500047
:1030b80005003a001e00900010009000900090005b
:1030c8001e009000110098001e0090001000900053
:1030d80030009000d0e588000080fa00000006006b
:020000040000fa
:1030e8000c00fa0040079800510798000000eb0018
:1030f800000f78007e0a0700d0e2800010079800d1
:103108004e009000900078005e0090000080400023
:10311800200798004e009000900078001e00900054
:10312800808f50000c0036004e0090009000780010
:103138002e009000808f500012003600ae009000e4
:103148001e009000808f50000e00360010002000f6
:10315800000f78000b0037004e00900090007800b8
:103168002e009000808f500004003e00ae009000ba
:103178001e009000808f50000200360010002000d2
:10318800000f78004e009000ae0090000108780013
:103198001e007800e00f500005003200d0e58000e6
:1031a8000080e800400407002e009000c0060700d9
:1031b80008fd0700300798003e009000e00f50001f
:1031c80003003a000821020000000000000000008f
:0831d8000080fa00000006006f
:020000040000fa
:1031e0000400fa00100798001e009000000f7800fd
:1031f0001e009000e00f5000350032001e007800e5
:10320000b0089000d0e5800030089000808f50001a
:103210002f0031001e00780060009000e00f500089
:1032200005003500d0e5800030089000e400100073
:103230001e007800610098001e0078005001900088
:103240001e007800300890006a00b9008000780005
:1032500040c0210000804000800f510018003a005b
:103260001e80e80012040700d0e58000b00890003e
:103270001e007800310898001e007800b008900009
:10328000e0e28000808f5000030036001e007800ce
:1032900030089000e0e288001e81e8001e007800ff
:1032a000300890006a00b9008000780040c021001a
:1032b00000804000820078002f05070004003700de
:1032c000d0e58000b00890001e007800310898001a
:0832d0000080fa000000060076
:020000040000fa
:1032d8000600fa00200798002e00900010079800ba
:1032e8000000eb00000f78002e009000e00f500067
:1032f8002f0032001e009000101090008000e9009e
:103308001e009000111098001e009000b008900058
:103318001e00900000109000808f500024003200a2
:103328001e00900010109000e00f500020003a009e
:103338001e0090000080e800db0307001e009000dc
:10334800801090001e009000310898001e00900028
:1033580030089000e40010001e0090006100980002
:103368001e009000b0089000e0e28000808f5000be
:10337800030036001e00900030089000e0e288004c
:103388001e0090000081e8001e00900030089000a8
:103398006a00b9008000780040c021000080400029
:1033a80082007800f204070010002000000f780067
:0c33b8001e0078000080fa0000000600f3
:020000040000fa
:1033c4000200fa00000f7800d10707000f00370051
:1033d4001e00780010089000e00f5000100032002a
:1033e4009e007800728040009f000700e00f5000ac
:1033f40001003200d60907001e007800201090005a
:103404008000e9001e007800211098001e0078005a
:1034140020109000e00f5000edff3c000100370049
:10342400000000001e0078008080eb00211098004e
:10343400ca070700b60707000f0037001e00780010
:1034440040009000e00f5000100032009e00780011
:103454006880400084000700e00f50000100320043
:10346400bb0907001e007800101090008000e900de
:103474001e007800111098001e00780010109000b3
:10348400e00f5000edff3c00010037000000000099
:103494001e0078008080eb0011109800af07070031
:0834a4000080fa0000000600a0
:020000040000fa
:1034ac000600fa003200370090028000000f78000e
:1034bc00ff3ffc0011028000f0f12f0080806000c3
:1034cc000002200000807000100288001e007800ae
:1034dc00900288000000880000000000f0e48000ea
:1034ec0030009000100798001e0090006c00400007
:1034fc006c0307009002800020079800ff3ffc003f
:10350c0011028000f0f12f00008060001002880092
:10351c002e00900090028800000088001e00900091
:10352c000080e8005f0307001e009000b0089000c8
:10353c0010e58000808f5000030036001e009000c4
:10354c003008900010e588001e0090000081e80013
:10355c001e009000300890006a00b90080007800ce
:10356c00c0c6210000804000820078007f04070064
:10357c00c0e48000e00f5000cbff3a000080fa005e
:04358c000000060035
:020000040000fa
:103590000e00fa0030079800410798005207980083
:1035a000630798003e009000100798000000eb00b1
:1035b000200798001e009000e00890001e00900078
:1035c00070089000808f5000030039006e0090005a
:1035d000e20f500020003a006e019000ce009000f3
:1035e0001e009000ddfa07001e00900020109000e1
:1035f000e10f400010003a001e00900010089000fb
:10360000e00f5000110032001e00900072004000d8
:1036100016000700e00f50000c0032005e00900022
:10362000e00f5000090032005e0090001100200001
:1036300001087800050037001e009000201090005f
:103640008000e8001e00900021109800100020006b
:10365000000f7800020037000000eb00000f780038
:0c3660001e0078000080fa000000060048
:020000040000fa
:10366c000600fa00200798002e0090003000900011
:10367c0030009000100798001e0090006c00400075
:10368c000803070050e38000e00f500016003a00da
:10369c001e0090000080e800020307001e0090004e
:1036ac00b0089000e0e28000808f500003003600ec
:1036bc001e00900030089000e0e288001e00900090
:1036cc000081e8001e009000300890006a00b900ec
:1036dc008000780040c0210000804000820078000b
:1036ec0022040700050037001e0090006c0040000b
:1036fc008000780040c421001c0407001e009000cc
:10370c00b0089000d0e5800030089000808f500009
:10371c000500360010002000000f7800100020007b
:10372c0010e38800020037000000eb00000f780067
:0c373c001e0078000080fa00000006006b
:020000040000fa
:103748000800fa002007980031079800ef060700e4
:10375800d0e28000100798003e009000100078002a
:10376800e10f400003003a000000eb00000f780072
:10377800250037002e0090009000780020e380009c
:10378800808f5000080032002e00900090009000ba
:103798001e009000808f500003003e0010002000a3
:1037a800000f7800180037002e00900010009000dd
:1037b8009e009000808050003e009000100078002d
:1037c800808f50000e0031003e009000900078007d
:1037d8002e009000100190001e0090000000510083
:1037e800808040003e009000010878002e00900084
:1037f8005a0807000000eb00000f780002003700ad
:1038080010002000000f7800d30607001e00780083
:083818000080fa000000060028
:020000040000fa
:103820000200fa0021ff0700affa07000600370088
:1038300010e58000e00f50002c00320010e5800001
:103840000000e90010e5880010e580006a00b9007a
:1038500080007800c0c62100008040001000780081
:10386000e00f5000f2ff320010e580006a00b9005e
:1038700080007800c0c62100008f40001e00780044
:1038800010009000900090001e0078001100980039
:103890001e007800900090001e0178006400410036
:1038a000808f500005003a001e0078001000900044
:1038b000900090001e007800110098001e00780013
:1038c0001000900030009000e0e58800e0e5800006
:1038d00010017800e0e58000c0089000e0e580007d
:1038e000020001000000000001003700000000009d
:0838f0000080fa000000060050
:020000040000fa
:1038f8000c00fa003007980041079800520798001a
:103908003e009000100798000000eb002007980088
:103918001e00900060089000e00f50002400320064
:10392800ce0090001e009000ca0207001e00900002
:10393800600890008000e9001e009000610898006f
:103948001e00900010109000e10f400010003a0097
:103958001e00900040009000e00f5000110032005f
:103968001e009000680040003eff0700e00f500076
:103978000c0032005e009000e00f50000900320099
:103988005e00900011002000010878000500370053
:103998001e009000101090008000e8001e009000ab
:1039a8001110980010002000000f78000200370066
:1039b8000000eb00000f78001e0078000080fa007d
:0439c80000000600f5
:020000040000fa
:1039cc000800fa00300798000000eb00000f7800a8
:1039dc003e009000100798000000eb0020079800b4
:1039ec001e009000fe040700e10f500026003a0074
:1039fc0050e38000e00f50001e003a001e009000c3
:103a0c00b0089000d0e5800030089000808f500006
:103a1c000200390010002000000f78001e009000fa
:103a2c000080e8001f0207001e009000b008900004
:103a3c00e0e28000808f5000030036001e009000f2
:103a4c0030089000e0e288001e0090000081e80041
:103a5c001e009000300890006a00b90080007800c9
:103a6c0040c0210000804000820078003f03070026
:103a7c00050037001e0090006c00400080007800ac
:103a8c0040c42100390307001e0078000080fa00b2
:043a9c000000060020
:020000040000fa
:103aa0000400fa00100798001a0607001e00900094
:103ab000e00f500002003a00d0e58000010037001e
:103ac0001e009000000f78001e80e800f80107003b
:103ad0001e00780020089000e00f50000300320024
:103ae0009e0078006c804000f10107001e80e80015
:103af00080007800e0c421001f03070018060700bb
:103b0000d0e580009e007800808f500010003a00c1
:103b1000f0e28000e00f50000400320008210200b3
:103b200000000000000000000f00370071e280007c
:103b3000c0e28000808f500003003a000000eb00dc
:103b4000d0e588000800370027fd07000600370091
:103b5000f0e28000e00f500003003200ed050700a6
:103b60005d060700fe0507000080fa000000060061
:020000040000fa
:103b70000a00fa0030079800410798003e009000c4
:103b8000100798000000eb00200798001e0090002e
:103b9000e00890001e00900070089000808f500098
:103ba000210031001e009000600890008000e800b5
:103bb0001e009000610898001e00900020109000e8
:103bc000e10f400010003a001e0090001008900025
:103bd000e00f5000110032001e0090007200400003
:103be000a2fe0700e00f50000c0032004e009000d3
:103bf000e00f5000090032004e009000110020003c
:103c000001087800050037001e0090002010900089
:103c10008000e8001e009000211098001000200095
:103c2000000f7800020037000000eb00000f780062
:0c3c30001e0078000080fa000000060072
:020000040000fa
:103c3c000800fa0020079800310798003e00900019
:103c4c0090007800110798001e009000e10f4000d2
:103c5c0004003a002e009000c0009000010f780084
:103c6c000d0037002e00900064004000000f78001b
:103c7c00030037001e00780090009000010f7800c0
:103c8c001e00780010009000900078001e0090003c
:103c9c00808f5000f7ff36001e00780090009000d7
:103cac003e009000110098003e0090001000900023
:103cbc00be009000210098003e0090009e0078000d
:103ccc00210098001e007800be00900011009800a2
:103cdc003e009000ae009000410098002e00900035
:103cec00100078008000e8002e0090000108780099
:083cfc000080fa000000060040
:020000040000fa
:103d04000c00fa003007980041079800224f9800f1
:103d14000000eb00100798004e009000e00f5000e8
:103d240003003a000000eb00000f780005003700a4
:103d3400be0090004e0090000088b900000078009a
:103d4400000fe800610220001e804000b000070060
:103d5400200798002e009000e00f5000170032005a
:103d64004e009000e00f500004003a00ae009000b6
:103d74002e00900001087800050037002e00900006
:103d840061022000808040002e009000010878002d
:103d94002e009000be009000710898002e00900044
:103da400ce00900001109800110020002e00900019
:103db400c6fb07002e009000100798001e0090001c
:083dc4000080fa000000060077
:020000040000fa
:103dcc000800fa002007980031079800be00900008
:103ddc0000002800808070002e0090000108780000
:103dec002e00900030009000100798002e009000dc
:103dfc002c0107001e0090000080e800290107003c
:103e0c001e009000b0089000e0e28000808f50000f
:103e1c00030036001e00900030089000e0e288009d
:103e2c001e0090000081e8001e00900030089000f9
:103e3c006a00b9008000780040c02100008040007a
:103e4c0082007800490207001e009000b008900024
:103e5c00d0e5800030089000808f500005003600bf
:103e6c0010002000000f78001000200010e38800e4
:103e7c00020037000000eb00000f78001e007800f5
:083e8c000080fa0000000600ae
:020000040000fa
:103e94000400fa0020479800600220005c0007003c
:103ea400000f78001e007800e00f5000260032005a
:103eb4001e0078008000eb00110098001e007800be
:103ec4008000eb00010878001e0078008000eb0001
:103ed400210098001e0078008000eb00310098005b
:103ee4001e0078008000eb00610898001e00780036
:103ef40011002000710898001e0078008000eb007b
:103f0400011098001e0078008080eb0011109800ca
:103f14001e0078008080eb00211098009e0078003d
:103f240068804000970307009e007800728040007c
:103f3400940307008001eb000001eb008000eb001c
:103f44001e00780066f607001e0078000080fa0064
:043f54000000060063
:020000040000fa
:103f58000400fa00100798001e009000000f780077
:103f68001e007800e00f500026003200d0e58000e7
:103f78009e007800808f500022003200e304070082
:103f88001e00780097030700e10f50001c003a005c
:103f98001e80e800c40007001e007800b0089000ea
:103fa800e0e28000808f5000030036001e00780099
:103fb80030089000e0e288001e81e8001e007800ca
:103fc800300890006a00b9008000780040c02100e5
:103fd8000080400082007800e50107001e0078009c
:103fe800b0089000d0e5800030089000808f500025
:103ff8000300390008210200000000000000000052
:0c400800d50407000080fa00000006004c
:020000040000fa
:104014000400fa00100798000000eb00000f78007d
:104024001e0090006100600000407800e04f5000e6
:10403400050032009e009000e0ff2f000080600029
:104044000080e80010079800aa06070010e080002e
:10405400e00f500004003a0021802000e0ff2f0010
:104064000080600010e0880001e080001e009000e5
:1040740080804000d03f2100808f50000d003e0022
:1040840001e080001e0090008080400000e080007d
:10409400808f50000700360011e0800000e08000af
:1040a400008f400001e080001e009000008040006e
:1040b40000e0880048f907001e0078000080fa003c
:0440c40000000600f2
:020000040000fa
:1040c8000600fa001007980021079800a0022000b7
:1040d800ceff0700000f78001e007800e00f5000a8
:1040e800120032002e009000e00f500004003a0049
:1040f8001e00900000004000c4ff070001003700c8
:104108002e0090009e007800c00898001e007800dd
:1041180040089000e00f500004003a001e007800ac
:10412800940607000000eb00000f78001e007800de
:10413800e00f5000080032001e0090000000400010
:10414800800078001e007800400890000101780087
:10415800510a200052f207001e0078000080fa0081
:04416800000006004d
:020000040000fa
:10416c000400fa009760a800000000009760a90006
:10417c00e0ca2100a10880000108780050e5800009
:10418c0061e58000008fbe00e0ca210010007800bd
:10419c00e10f400004003a001e00be006100500018
:1041ac00e0805800008fbe000e00780010407800b0
:1041bc00b0fcb7000e0078000000e800104078005a
:1041cc00b1fcb7000e0078000080e80010407800c9
:1041dc00b2fcb7000e00780063004000104078007d
:1041ec00b3fcb70031048000008020000080600028
:1041fc00e00f5000dbff3a009760a8000080fa0047
:04420c0000000600a8
:020000040000fa
:104210004200f800801f7800000220001002880091
:10422000811f7800829fbe00849fbe00869fbe00d3
:10423000889fbe008a9fbe008c9fbe008e1f7800a4
:104240003600f8003200f8004400f8003400f800ae
:10425000c0e58000801f7800d0e580000f0878005e
:10426000f417020000000000d0e5800090077800fd
:104270004f007800c0e588003400f9004400f900e0
:104280003200f9003600f9004f0778004f06be00f3
:104290004f05be004f04be004f03be004f02be00dc
:1042a0004f01be004f00be004200f90000000600b2
:020000040000fa
:1042b0000400fa00100798001e00900040009000d3
:1042c000000f78001e009000100090009e009000eb
:1042d000a1009000210098001e0090002000900096
:1042e0009e00900091009000110098001e00780040
:1042f000900090001e009000808f500004003a0053
:104300001e009000a00090001e0078001100980090
:104310001e0090008000eb00410098001e00780015
:10432000100078008000e9001e0078000108780085
:104330001e007800100078000080fa0000000600df
:020000040000fa
:104340000400fa008003eb000003eb008002eb00a6
:104350000002eb008001eb003207200041582800ea
:10436000c0c522000bf40700000f78001e00780083
:10437000e10f500014003a009002800010079800ee
:10438000ff3ffc0011028000f0f12f0080806000f0
:104390000002200000807000100288001e009000c3
:1043a0009002880000008800000000000080eb0000
:1043b00040e3880010002000f0e288000000eb00dd
:1043c000d0e28800ba0207000080fa000000060070
:020000040000fa
:1043d0000600fa00100798002107980021e58000e8
:1043e0001e009000008f4000e0e580000080e800a3
:1043f000afff0700e0e580009e0078001100980004
:1044000020e580009e007800808f5000050031007c
:10441000e0e580008080e800b0e4800007fe07004f
:1044200004003700e0e580008080e800a0e4800020
:1044300002fe07002e009000e00f50000500320041
:10444000e0e580006c004000800078002e009000c5
:0c445000fafd07000080fa0000000600e2
:020000040000fa
:10445c000400fa00000f7800110798001e00780085
:10446c0000109000e00f5000190032001e00780080
:10447c00b00090001e00780000109000808040007a
:10448c001e007800310098001e007800b0009000eb
:10449c001e00780010009000808f5000040039003e
:1044ac001e007800900078001e0078003100980003
:1044bc001e007800801090001e00780030009000e4
:1044cc0001017800800078001e0090006bf107005d
:0844dc000080fa000000060058
:020000040000fa
:1044e4000400fa002047980000c3b300c10307008a
:1044f40080c5b300bf0307002e4090000080fb007e
:104504004400de00004f78001e407800e94f500060
:104514000400360071c3b3001ec04000b503070099
:104524000300370001c3b3001ec04000b1030700fd
:104534002e4090006f4f60001e407800e94f5000fd
:104544000400360071c3b3001ec04000a903070075
:104554000300370001c3b3001ec04000a5030700d9
:084564000080fa0000000600cf
:020000040000fa
:10456c000400fa002047980000c3b3009f03070023
:10457c0080c5b3009d0307002e4090000080fb0017
:10458c004400de00004f78001e407800e94f5000d8
:10459c000400360071c3b3001ec040009303070033
:1045ac000300370001c3b3001ec040008f03070097
:1045bc002e4090006f4f60001e407800e94f500075
:1045cc000400360071c3b3001ec04000870307000f
:1045dc000300370001c3b3001ec040008303070073
:0845ec000080fa000000060047
:020000040000fa
:1045f4000800fa0010079800210798003207980075
:104604001e009000000f78001e007800e008900063
:104614001e00780070089000808f50001200310056
:104624000001eb00ae0090001e007800caf60700ff
:104634003e009000e00f50000b003a001e0078008e
:1046440010089000e00f5000070032009e00780030
:1046540072804000b9000700e00f500002003200f1
:1046640010002000010037003e0090000080fa0096
:04467400000006003c
:020000040000fa
:104678000800fa00100798002107980032079800f0
:10468800d0e580002e019000010028008100710013
:1046980061009800d0e580006c0040008000780040
:1046a8001e00900032000700d0e580000080e8007e
:1046b800fdfe07003e009000e10f400006003a00b2
:1046c800d0e580000080e80080007800e0c4210088
:1046d8002700070005003700d1e280003e00900067
:1046e800008f40001e007800710107000080fa006a
:0446f80000000600b8
:020000040000fa
:1046fc000400fa00100798000040eb00004f78000f
:10470c0010c0b300104798002b02070011003700af
:10471c001e009000104078009e0090008100e80080
:10472c0011079800bb0007001e407800f34f5000a3
:10473c00070036001e409000e14f500004003a0084
:10474c00340207001e4090000040e800104798001b
:10475c001e4fe8001e00900010407800e04f500003
:0c476c00ebff3a000080fa00000006009d
:020000040000fa
:104778000600fa0010079800210798001e00900014
:1047880090009000010f78002e0090009e007800a5
:10479800110098001e007800a00090002e009000e4
:1047a800210098001e00780020009000ae009000c4
:1047b800110098001e007800ae00900021009800bb
:1047c8002e0090009e009000410098001e0090006e
:1047d800100078008000e8001e00900001087800b2
:0847e8000080fa000000060049
:020000040000fa
:1047f0000c00fa0040079800510798004e00900006
:10480000100798000000eb00200798001e009000a1
:1048100060089000e00f50000c0032001e00900075
:10482000b000900031079800de0090001e0090005c
:104830000aff07001e009000be00900031009800a3
:1048400010002000000f7800020037000000eb008d
:10485000000f78001e0078000080fa0000000600bb
:020000040000fa
:104860000200fa000000eb00000f7800070037009c
:104870001e0078006a00b9008000780040c0210066
:1048800000804000400107001e0fe8001e00780075
:10489000e30f5000f6ff3600c0c221003a010700c6
:1048a00060c321003801070040c421003601070021
:1048b000e0c4210034010700c0c2210000e28800ea
:1048c00060c3210010e288000080fa0000000600aa
:020000040000fa
:1048d0000600fa00200798002e00900010079800ac
:1048e0001e009000e00f500002003a00d0e580006a
:1048f000010037001e009000100798008502070095
:104900001e00900040109000e20f500006003a0098
:104910001e0090008000eb00411098001000200065
:10492000000f7800020037000000eb00000f780055
:104930008b0207001e0078000080fa0000000600cd
:020000040000fa
:104940000600fa00200798002e009000300090002a
:1049500030009000100798001e0090006c0040008e
:1049600053fe07001e0090006c004000800078009d
:1049700080c9210080ff07001e009000b008900051
:10498000e0e5800030089000808f5000030039007f
:1049900010002000000f7800020037000000eb003c
:1049a000000f78001e0078000080fa00000006006a
:020000040000fa
:1049b0000800fa00100798002107980032079800b5
:1049c0000000eb00000f78003e009000e00f500068
:1049d00008003a009e0090002e00900000806000c9
:1049e000e00f50000b00320010002000000f780094
:1049f000080037009e0090002e009000808060002c
:104a00002e009000808f500002003a00100020001d
:104a1000000f78001e0078000080fa0000000600f9
:020000040000fa
:104a20000200fa00004f7800406a200001002000d8
:104a3000a0e58800b1e5880010002000f7ee07002f
:104a40001e00fb004030880006003700a0e5800013
:104a5000b1e5800061005000e0805800a0e58800ca
:104a6000b1e58800a0e58000b1e58000e00f5000ce
:104a7000e08f5800f5ff3a00000000000000000041
:104a800000000000000000000080fa0000000600a6
:020000040000fa
:104a90000400fa0020479800007d2000010020005b
:104aa000a0e58800b1e588000000eb00dbee070020
:104ab000ae40900000ccb30000cf70009e40780064
:104ac0000180fb004030880006003700a0e5800030
:104ad000b1e5800061005000e0805800a0e588004a
:104ae000b1e58800a0e58000b1e58000e00f50004e
:104af000e08f5800f5ff3a000080fa000000060041
:020000040000fa
:104b00000400fa0020479800007d200001002000ea
:104b1000a0e58800b1e588000000eb00bfee0700cb
:104b2000ae40900000c8b30000cf70009e407800f7
:104b30000180fb004030880006003700a0e58000bf
:104b4000b1e5800061005000e0805800a0e58800d9
:104b5000b1e58800a0e58000b1e58000e00f5000dd
:104b6000e08f5800f5ff3a000080fa0000000600d0
:020000040000fa
:104b7000000800000414000000000000b81c000041
:104b80000200000002000000ef000000ba1c00005c
:104b9000020000000200000000000000041c0000f1
:104ba00068000000000000006c1c00003e000000d7
:104bb00000000000bc1c0000020000000200000019
:104bc00000000000b41c0000040000000000000011
:104bd000aa1c00000a000000000000000000000005
:020000040000fa
:104be0000600fa00200798000000eb00000f780094
:104bf0002e009000e00f50000c003200be030700b2
:104c0000d1e280002e009000008040001007980044
:104c1000d0e580000080e800a5fd07001e009000a0
:104c2000250007006df60700000f78001e007800d1
:104c3000e00f500003003a000821020000000000cd
:0c4c4000000000000080fa0000000600e8
:020000040000fa
:104c4c000600fa001007980021079800d0e58000b4
:104c5c006c004000800078001e009000f4fb070000
:104c6c00d0e580000080e8008efd07002e0090004b
:104c7c00e10f400006003a00d0e580000080e8001b
:104c8c0080007800e0c42100b8fe07000500370062
:104c9c00d1e280002e009000008f40001e007800b2
:0c4cac00020007000080fa000000060073
:020000040000fa
:104cb8000200fa00000f7800d0e580009e0078001e
:104cc80011009800d0e280009e007800808f50008c
:104cd80005003100d0e580008080e80010e2800007
:104ce800d4fb07000a003700d0e580008080e80088
:104cf80000e28000cffb070040e380009e007800c0
:104d0800808f5000020031001e00780040e38800c8
:084d18000080fa000000060013
:020000040000fa
:104d20000200fa000000eb00000f780007003700d7
:104d30001e0078006a00b90080007800c0c621001b
:104d400000804000100007001e0fe8001e007800e1
:104d5000e10f5000f6ff360000c821000a000700ee
:104d6000a0c821000800070080c921000600070034
:104d700000c82100a0e48800a0c82100b0e4880099
:084d80000080fa0000000600ab
:020000040000fa
:104d88000200fa00000f78009e007800648040005e
:104d9800800078001e007800110098001e0078003e
:104da8008080eb00210098009e007800648040001d
:104db800800078001e007800310098009e0078007e
:104dc80064804000800078001e0078004100980050
:104dd8001e0078008000eb00010878000080fa00cf
:044de80000000600c1
:020000040000fa
:104dec000600fa00200798000000eb00000f780086
:104dfc002e009000100798001e009000d00090002c
:104e0c00e0c42100808f50000b003a001e0090007f
:104e1c00a008900040c42100808f50000600320092
:104e2c001e00900020089000e00f500002003a0095
:104e3c0010002000000f78001e0078000080fa009f
:044e4c00000006005c
:020000040000fa
:104e50003600f800809fbe00829fbe00849fbe0087
:104e6000869fbe003400f80000002000a0018800ea
:104e70000000fa008460a90009f30700e00f500069
:104e800003003200082102000000000000000000c2
:104e90000080fa003400f9004f03be004f02be004c
:104ea0004f01be004f00be003600f9000040060072
:020000040000fa
:104eb0000000fa0015000700d0e580009007780098
:104ec0004f007800c0e588003400f9004400f90084
:104ed0003200f9003600f9004f0778004f06be0097
:104ee0004f05be004f04be004f03be004f02be0080
:104ef0004f01be004f00be004200f9000000060056
:0c4f0000100020000080fa0000000600f5
:020000040000fa
:104f0c000400fa00f07c200001002000008fbe009d
:104f1c000000eb00200888000000eb00000888006f
:104f2c001e0078001008880021058000f0ff280082
:104f3c008080600000002100008070002005880047
:104f4c008460a9009460a8000481a80004a1a900b1
:0c4f5c0005e1a8000080fa00000006003b
:020000040000fa
:104f68000000fa00007d200001002000a0e5880074
:104f7800b1e588000000eb00a6ed07002000200046
:104f88004030880006003700a0e58000b1e58000c9
:104f980061005000e0805800a0e58800b1e5880075
:104fa800a0e58000b1e58000e00f5000e08f5800d8
:0c4fb800f5ff3a000080fa00000006003f
:020000040000fa
:104fc4000000fa00007d200001002000a0e5880018
:104fd400b1e588000000eb008fed07000008200019
:104fe4004030880006003700a0e58000b1e580006d
:104ff40061005000e0805800a0e58800b1e5880019
:10500400a0e58000b1e58000e00f5000e08f58007b
:0c501400f5ff3a000080fa0000000600e2
:020000040000fa
:105020000000fa00007d200001002000a0e58800bb
:10503000b1e588000000eb0078ed0700000c2000cf
:105040004030880006003700a0e58000b1e5800010
:1050500061005000e0805800a0e58800b1e58800bc
:10506000a0e58000b1e58000e00f5000e08f58001f
:0c507000f5ff3a000080fa000000060086
:020000040000fa
:10507c000000fa00007d200001002000a0e588005f
:10508c00b1e588000000eb0061ed07001000200086
:10509c004030880006003700a0e58000b1e58000b4
:1050ac0061005000e0805800a0e58800b1e5880060
:1050bc00a0e58000b1e58000e00f5000e08f5800c3
:0c50cc00f5ff3a000080fa00000006002a
:020000040000fa
:1050d8000a00fa0030302800000f7800f03f200066
:1050e8001007980010002000200798000000eb002f
:1050f800300798000000eb00400798000ced07000f
:105108004e0090000040780000427800be019000f8
:105118002e0190009e0090001e0078000aed070006
:085128000080fa0000000600ff
:020000040000fa
:105130000600fa00200798002e009000000f78006b
:105140001e80e800100798006b020700040037007b
:105150001e00900030009000012020001bfb070083
:105160001e00900010007800e00f5000f8ff3a0099
:105170001e0078008102070018f507000080fa0081
:045180000000060025
:020000040000fa
:105184000800fa0020079800310798002e009000cc
:10519400000f78005e0007001e0078009000780081
:1051a400110798001e007800900078003e009000df
:1051b4000080ea00808060001e007800010878000a
:1051c400660007001e0090000080fa000000060040
:020000040000fa
:1051d4000400fa0010079800020037001e4078000f
:1051e400840007001e00900010407800004f7800f3
:1051f4009e4078000180fb000000ea004f00de00c2
:10520400004078009e0090008100e800110798009b
:10521400e04f5000f1ff3a000080fa000000060061
:020000040000fa
:105224000000fa00f10880000003200000807000f4
:10523400f00888000080eb00d00888000000eb0034
:10524400a008880081058000f0ff280080806000ad
:105254000000220000807000800588008760a9009b
:105264009760a8001fe1a8000080fa000000060073
:020000040000fa
:105274000400fa00bcfb07008e007800afdcbf001e
:10528400804878000e0078008000e800b0dcbf00a1
:10529400804878000e0078008080e800b1dcbf0010
:1052a400804878000e007800e3004000b2dcbf00c4
:1052b400804878001e00be000080fa00000006004e
:020000040000fa
:1052c4000400fa00a8fb07008e007800b0dcbf00e1
:1052d400804878000e0078008000e800b1dcbf0050
:1052e400804878000e0078008080e800b2dcbf00bf
:1052f400804878000e007800e3004000b3dcbf0073
:10530400804878001e00be000080fa0000000600fd
:020000040000fa
:105314000200fa0090028000000f7800ff3ffc00ba
:1053240011028000f0f12f00808060000002200054
:1053340000807000100288001e007800900288002f
:105344000000880000000000c0e580000000e800c4
:0c535400c0e588000080fa0000000600a0
:020000040000fa
:105360000200fa00c0e580000000e900c0e5880006
:10537000c0e58000e00f50000a003a009002800073
:10538000000f7800ff3ffc0011028000f0f12f00b9
:1053900000806000100288001e00780090028800e3
:0c53a000000088000080fa0000000600f9
:020000040000fa
:1053ac000200fa0090028000000f7800ff3ffc0022
:1053bc0011028000f0f12f008080600000022000bc
:1053cc0000807000100288001e0078009002880097
:1053dc0000008800000000000000eb00f0e28800f4
:0c53ec00f30107000080fa00000006003a
:020000040000fa
:1053f8000200fa00004f780000000000011780004a
:105408000000210000806000e00f5000fbff3a0020
:105418000000000091118000002020000080600042
:10542800e00f5000fbff3a001e00fb00a0118800af
:0c5438001e00fb000080fa0000000600cf
:020000040000fa
:105444000400fa00008fbe001e02be000003eb0041
:105454008003eb00f0012000010020006011b8007f
:105464000400400085804800060149008781490006
:10547400e4032000050020006033b800faec0700c4
:0c5484000000be000080fa0000000600de
:020000040000fa
:105490000400fa00100798009eff07001e0090000d
:1054a000e00890001e00900070089000808f50006f
:1054b00003003a0010002000000f780002003700bf
:1054c0000000eb00000f7800a5ff07001e00780029
:0854d0000080fa000000060054
:020000040000fa
:1054d8000200fa0000e2800010007800e00f50009f
:1054e80003003a000080eb0040e388000700370023
:1054f80000e280003000900030009000000f78003b
:105508001e0078001000900040e388000080fa0038
:045518000000060089
:020000040000fa
:10551c000000fa00101a2000c0118800800028003a
:10552c0080118800004020009011880087c0a900dd
:10553c0091058000f08f2f0080806000001020000b
:10554c00008070009005880097c0a8000080fa00c9
:04555c000000060045
:020000040000fa
:105560000400fa00100798006aff07001e00900070
:1055700060089000e00f500003003a001000200087
:10558000000f7800020037000000eb00000f7800e9
:1055900073ff07001e0078000080fa00000006007c
:020000040000fa
:1055a0000400fa00100798001e009000e008900028
:1055b0001e00900070089000808f500003003a0099
:1055c00010002000000f7800020037000000eb0000
:1055d000000f78001e0078000080fa00000006002e
:020000040000fa
:1055e0000600fa00200798002e009000000f7800b7
:1055f00048ff07001e007800f00890001e007800a9
:1056000060089000008050001007980054ff0700c9
:0c5610001e0090000080fa000000060060
:020000040000fa
:10561c000200fa00c00020007bfa0700000f78009f
:10562c001e007800e00f5000050032001e007800cc
:10563c008000eb00010878001e80e800cffd070019
:0c564c001e0078000080fa00000006003c
:020000040000fa
:105658000400fa00100798001e00900060089000ef
:10566800e00f500003003a0010002000000f7800ff
:10567800020037000000eb00000f78001e007800e1
:085688000080fa00000006009a
:020000040000fa
:105690000000fa000001eb0060042000710520000a
:1056a000237420008049780081497800824978007d
:1056b00000002300203a88000000eb00403a8800f8
:0856c0000080fa000000060062
:020000040000fa
:1056c8000200fa00000f7800040037001e0078007e
:1056d800104078001e0fe800cffc07001e0078007d
:1056e80010407800e04f5000f8ff3a000080fa00c0
:0456f80000000600a8
:020000040000fa
:1056fc000200fa00000f78001e00780040198800a4
:10570c002023a80000000000001980006100600048
:10571c00e00f5000fcff3200001880000080fa00ff
:04572c000000060073
:020000040000fa
:105730000200fa00004f7800000000009111800084
:105740000020200000806000e00f5000fbff3a00c6
:105750001e00fb00a01188001e00fb000080fa0064
:04576000000006003f
:020000040000fa
:10576400801f78000200fa0087c0a90002003700f9
:10577400b0118000004f780090118000610060003b
:10578400e00f5000faff3a000080fa004f00780062
:0457940000400600cb
:020000040000fa
:105798000200fa00d0e58000e0009000010f7800d8
:1057a800d0e58000d1e58000b1089000e4801000c9
